S0250000536F696C4D6F69737475726553656E736F72496E746572666163696E672E737265632C
S11300000C9472000C9493000C9493000C94930041
S11300100C9493000C9493000C9493000C94930010
S11300200C9493000C9493000C9493000C94930000
S11300300C9493000C9493000C9493000C949300F0
S11300400C9493000C9493000C9493000C949300E0
S11300500C9493000C9493000C9493000C949300D0
S11300600C9493000C9493000C9493000C949300C0
S11300700C9493000C9493000C9493000C949300B0
S11300800C9493000C9493000C9493000C949300A0
S11300900C9493000C9493000C9493000C94930090
S11300A00C9493000C9493000C9493000C94930080
S11300B00C9493000C9493000C9493000C94930070
S11300C00C9493000C9493000C9493000C94930060
S11300D00C9493000C9493000C9493000C94930050
S11300E00C94930011241FBECFEFD1E2DEBFCDBF2D
S11300F000E00CBF12E0A0E0B2E0E4EFF6E000E0C4
S11301000BBF02C007900D92AA32B107D9F722E0C3
S1130110AAE2B2E001C01D92A633B207E1F70E9441
S1130120D2020C9478030C94000087B1876F87B9CE
S113013088B1887088B9089586E69EE00197F1F742
S113014000004098419880E388B9429AEFEFF7E4C1
S11301503197F1F700C000004298E6E6FEE03197DF
S1130160F1F700004098419888B9429AEFEFF7E41C
S11301703197F1F700C000004298E6E6FEE03197BF
S1130180F1F700004098419888B9429A8FEF97E4BC
S11301900197F1F700C000004298E6E6FEE03197CF
S11301A0F1F700004098419880E288B9429A8FEFB5
S11301B097E40197F1F700C000004298089598B1C0
S11301C09F7098B998B1282F207F922B98B94098A6
S11301D04198429AEFEFF7E43197F1F700C000003D
S11301E0429898B19F7098B998B18295807F892B75
S11301F088B940984198429A8FEF97E40197F1F7B4
S113020000C00000429808950E9495000E949C003E
S113021086E69EE00197F1F7000088E20E94DF0085
S113022081E00E94DF0086E00E94DF008EE00E94F1
S1130230DF0080E80E94DF00089598B19F7098B9AC
S113024098B1282F207F922B98B9409A4198429ACE
S1130250EFEFF7E43197F1F700C00000429898B14E
S11302609F7098B998B18295807F892B88B9409AFC
S11302704198429A8FEF97E40197F1F700C000008C
S11302804298089580E80E94DF000895823071F05A
S113029018F4813031F00895833069F0843081F0AE
S11302A008958FE7860F0E94DF0008958FEB860F75
S11302B00E94DF00089583E9860F0E94DF000895FD
S11302C083ED860F0E94DF000895CF93DF93EC0146
S11302D08881882331F021960E941D018991811122
S11302E0FBCFDF91CF9108950F931F93CF93DF93AB
S11302F08A01E901882311F0611103C00E944201BF
S113030002C00E944601C530D10509F0DFC0980142
S1130310329522952F7023273F702327A7E4B3E05B
S11303200E9434039695879596958795969587951B
S1130330C09690932B0280932A020E941D0198017B
S1130340369527953695279536952795A5ECB0E2F1
S11303500E943403AC01529542954F7045275F705B
S1130360452750932F0240932E029A01ADECBCEC2A
S11303700E943403969587959695879596958795CB
S11303809C01220F331F880F991F880F991F880F14
S1130390991F820F931F9A01281B390BC901C0961C
S11303A090933502809334020E941D0103C0C33030
S11303B0D10591F598013695279536952795ABE7A4
S11303C0B4E10E943403AC015695479550932F0233
S11303D040932E029A01ADECBCEC0E943403969536
S11303E0879596958795969587959C01220F331F3F
S11303F0880F991F880F991F880F991F820F931FC9
S11304009A01281B390BC901C0969093310280933D
S113041030020E941D0104C0C230D10509F05BC046
S11304209801ADECBCEC0E943403AC0156954795A1
S1130430569547955695479550932F0240932E0213
S11304409A010E943403969587959695879596957B
S113045087959C01220F331F880F991F880F991FBE
S1130460880F991F820F931F9A01281B390BC9010A
S1130470C09690932D0280932C020E941D01980136
S1130480ADECBCEC0E9434039695879596958795C0
S1130490969587959C01220F331F880F991F880F0B
S11304A0991F880F991F820F931F9801281B390BDE
S11304B0C901C09690933302809332020E941D01B9
S11304C026976CF085E60E941D0109C0C430D10551
S11304D009F06DCF34CFC130D10591F7D0CFDF9182
S11304E0CF911F910F91089581E00E94DF0008953C
S11304F08598089510927C0086E880937A0087EFAF
S113050080937B0080E880BF8FEF80937E00809390
S11305107D000895883028F0EBE7F0E09081986042
S11305209083877080937C00EAE7F0E080818064A8
S11305308083808184FFFDCF8091780020917900B1
S1130540EAE7F0E0908190619083EBE7F0E090813E
S1130550976F908390E0922B089585E00E948A0221
S113056008950E94AD02A0E0B0E09C01AD012C52C0
S1130570314041095109ACE9BFEF0E94510323ED19
S113058032E040E050E00E94150384E6820F0895B3
S11305900E9404010E9478020895F8940E94C802FF
S11305A0789408950E94CD020E947A0263E081E06B
S11305B00E94460180E092E00E94650164E082E0CE
S11305C00E9446018EE092E00E9465012FEF8FEFBA
S11305D099E5215080409040E1F700C000000E945E
S11305E0740262E081E00E94460189E192E00E9487
S11305F065016AE082E00E94460187E292E00E947F
S113060065010E94B102482F50E023E030E067E02A
S113061082E00E9474012FEF8FE794E02150804024
S11306209040E1F700C00000ECCF052E97FB1EF4CC
S113063000940E942C0357FD07D00E94560307FC28
S113064003D04EF40C942C0350954095309521958D
S11306503F4F4F4F5F4F08959095809570956195EA
S11306607F4F8F4F9F4F0895A29FB001B39FC0014A
S1130670A39F700D811D1124911DB29F700D811DCA
S11306801124911D08950E943403A59F900DB49FD9
S1130690900DA49F800D911D11240895B7FF0C9413
S11306A043030E944303821B930B0895A1E21A2E75
S11306B0AA1BBB1BFD010DC0AA1FBB1FEE1FFF1F02
S11306C0A217B307E407F50720F0A21BB30BE40B52
S11306D0F50B661F771F881F991F1A9469F7609599
S11306E07095809590959B01AC01BD01CF01089553
S10706F0F894FFCFA8
S11306F4484143544F4245522D324B3139004F50F7
S1130704454E534F5552434500534F494C204D4F8A
S10D071449535455524500250000D6
S9030000FC
