S0250000536F696C4D6F69737475726553656E736F72496E746572666163696E672E737265632C
S11300000C9472000C9493000C9493000C94930041
S11300100C9493000C9493000C9493000C94930010
S11300200C9493000C9493000C9493000C94930000
S11300300C9493000C9493000C9493000C949300F0
S11300400C9493000C9493000C9493000C949300E0
S11300500C9493000C9493000C9493000C949300D0
S11300600C9493000C9493000C9493000C949300C0
S11300700C9493000C9493000C9493000C949300B0
S11300800C9493000C9493000C9493000C949300A0
S11300900C9493000C9493000C9493000C94930090
S11300A00C9493000C9493000C9493000C94930080
S11300B00C9493000C9493000C9493000C94930070
S11300C00C9493000C9493000C9493000C94930060
S11300D00C9493000C9493000C9493000C94930050
S11300E00C94930011241FBECFEFD1E2DEBFCDBF2D
S11300F000E00CBF12E0A0E0B2E0E8E0F6E000E0CF
S11301000BBF02C007900D92AA32B107D9F722E0C3
S1130110AAE2B2E001C01D92A633B207E1F70E9441
S11301204C020C9402030C94000087B1876F87B9CA
S113013088B1887088B9089586E69EE00197F1F742
S113014000004098419880E388B9429AEFEFF7E4C1
S11301503197F1F700C000004298E6E6FEE03197DF
S1130160F1F700004098419888B9429AEFEFF7E41C
S11301703197F1F700C000004298E6E6FEE03197BF
S1130180F1F700004098419888B9429A8FEF97E4BC
S11301900197F1F700C000004298E6E6FEE03197CF
S11301A0F1F700004098419880E288B9429A8FEFB5
S11301B097E40197F1F700C000004298089598B1C0
S11301C09F7098B998B1282F207F922B98B94098A6
S11301D04198429AEFEFF7E43197F1F700C000003D
S11301E0429898B19F7098B998B18295807F892B75
S11301F088B940984198429A8FEF97E40197F1F7B4
S113020000C00000429808950E9495000E949C003E
S113021086E69EE00197F1F7000088E20E94DF0085
S113022081E00E94DF0086E00E94DF008EE00E94F1
S1130230DF0080E80C94DF0098B19F7098B998B102
S1130240282F207F922B98B9409A4198429AEFEF39
S1130250F7E43197F1F700C00000429898B19F701D
S113026098B998B18295807F892B88B9409A419832
S1130270429A8FEF97E40197F1F700C0000042988B
S11302800895982F862F923059F018F4913031F058
S11302900895933039F0943039F00895815805C0A9
S11302A0815403C08D5601C08D520C94DF00CF934E
S11302B0DF93EC018991882319F00E941C01FACF85
S11302C0DF91CF91089581E00C94DF0080E80C94D5
S11302D0DF000F931F93CF93DF938A01E9018823F3
S11302E011F0611103C00E94660102C00E94410125
S11302F0C530D10509F061C0C80160E177E20E9410
S11303008B02CB01C09690932B0280932A020E9409
S11303101C01C80168EE73E00E948B02CB0170934C
S11303202F0260932E026AE070E00E948B02C09656
S113033090933502809334020E941C01C80164E644
S113034070E00E948B02CB0170932F0260932E0207
S11303506AE070E00E948B02C09690933102809311
S113036030020E941C012AE030E0C801B9010E9459
S11303708B02CB0170932F0260932E02B9010E946D
S11303808B02C09690932D0280932C020E941C0134
S1130390C8016AE070E00E948B02C0969093330219
S11303A0809332020E941C012697B4F085E6DF9107
S11303B0CF911F910F910C941C01C430D10509F405
S11303C0A8CFC330D10509F4B9CFC230D10559F251
S11303D0C130D10549F7DCCFDF91CF911F910F9147
S11303E0089580B38F6D80BB089510927C0086E8D9
S11303F080937A0087EF80937B0080E880BF8FEF43
S113040080937E0080937D000895883028F0909139
S11304107B00986090937B00877080937C00809130
S11304207A00806480937A0080917A0084FFFCCF04
S1130430809178002091790090917A009061909356
S11304407A0090917B00976F90937B0090E0922BC1
S1130450089585E00C9405020E942902A0E0B0E012
S11304609C01AD012C52314041095109ACE9BFEF67
S11304700E94CC0223ED32E040E050E00E949F0253
S113048084E6820F08950E9404010C94F101F8940B
S11304900E944302789408950E9447020E94F50145
S11304A082E80E94DF0080E092E00E94570183EC22
S11304B00E94DF008EE092E00E9457012FEF8FEF41
S11304C099E5215080409040E1F700C000000E946F
S11304D0630181E80E94DF0089E192E00E945701F4
S11304E089EC0E94DF0087E292E00E9457010E949B
S11304F02C02482F50E023E030E067E082E00E94C5
S113050069012FEF8FE794E0215080409040E1F79C
S113051000C00000ECCFAA1BBB1B51E107C0AA1FFF
S1130520BB1FA617B70710F0A61BB70B881F991F90
S11305305A95A9F780959095BC01CD010895052E93
S113054097FB1EF400940E94B60257FD07D00E9448
S1130550D10207FC03D04EF40C94B602509540959A
S1130560309521953F4F4F4F5F4F0895909580955B
S1130570709561957F4F8F4F9F4F08950E94F302AE
S1130580A59F900DB49F900DA49F800D911D1124E3
S11305900895B7FF0C94BE020E94BE02821B930B07
S11305A00895A1E21A2EAA1BBB1BFD010DC0AA1FB0
S11305B0BB1FEE1FFF1FA217B307E407F50720F0C8
S11305C0A21BB30BE40BF50B661F771F881F991F43
S11305D01A9469F760957095809590959B01AC018C
S11305E0BD01CF010895A29FB001B39FC001A39F95
S11305F0700D811D1124911DB29F700D811D112458
S10B0600911D0895F894FFCF49
S1130608484143544F4245522D324B3139004F50E3
S1130618454E534F5552434500534F494C204D4F77
S10D062849535455524500250000C3
S9030000FC
